:1000000000000220750300005D0300005F03000094
:1000100061030000630300006503000000000000AE
:100020000000000000000000000000006703000066
:1000300069030000000000006B0300006D03000076
:100040006F0300006F030000310800006F03000021
:100050006F0300006F0300006F0300006F030000D8
:100060006F0300006F0300006F0300006F030000C8
:100070006F0300006F0300006F0300006F030000B8
:100080006F0300006F0300006F0300006F030000A8
:100090006F0300006F0300006F0300006F03000098
:1000A0006F0300006F0300006F0300006F03000088
:1000B0006F0300006F03000000000000000000005C
:1000C0006F0300006F0300006F0300006F03000068
:1000D0006F0300006F0300006F0300006F03000058
:1000E0006F0300000000000000000000000000009E
:1000F000000000006F030000000000006F0300001C
:1001000000000000000000000000000000000000EF
:1001100000000000000000000000000000000000DF
:1001200000000000000000000000000000000000CF
:1001300000000000000000000000000000000000BF
:1001400000000000000000000000000000000000AF
:10015000000000000000000000000000000000009F
:10016000000000000000000000000000000000008F
:10017000000000000000000000000000000000007F
:10018000000000000000000000000000000000006F
:10019000000000000000000000000000000000005F
:1001A000000000000000000000000000000000004F
:1001B000000000000000000000000000000000003F
:1001C000000000000000000000000000000000002F
:1001D000000000000000000000000000000000001F
:1001E000000000000000000000000000000000000F
:1001F00000000000000000000000000000000000FF
:10020000354936480A1A02D0072291438D463449AF
:1002100034480A1A06D00722914381F30988022242
:1002200082F3148830483149314A00F044F83148AB
:100230003149324A00F03FF831483249324A00F041
:100240003AF832483249334A00F035F832483349F7
:10025000334A00F030F833483349344A00F02BF881
:1002600033483449344A00F026F8344834490022EF
:1002700000F02CF833483449002200F027F83348C6
:100280003349091A082902DB002202604160314A21
:1002900090471F481F49884205D00268043003B4C4
:1002A000904703BCF7E700208646EC46002000217B
:1002B000294A9047FEE7884207D0521A05D00378B2
:1002C00001300B700131013AF9D17047884202D0F8
:1002D00002700130FAE770470000022000E00120C0
:1002E0000000022000000220042400000000002082
:1002F00024000020D0030000D00300008A22000068
:100300000424000000000020000000208C220000D7
:100310008C2200008C2200008C2200008C22000025
:100320008C2200008C2200008C220000042400009B
:1003300028240000240000202400002024000020A5
:10034000EC050020EC050020EC050020EC05002069
:10035000EC2500209D0300003D120000FEE7FEE7B3
:10036000FEE7FEE7FEE7FEE7FEE7FEE7FEE7FEE765
:1003700000F002B8FFF7FCBF0F484FF007018843B9
:1003800085460E4880470E48016841F470010160BF
:10039000BFF34F8FBFF36F8FFFF732BF09480A4992
:1003A0000A4A884207D0521A05D0037801300B70F0
:1003B0000131013AF9D1704700000220FD1F000011
:1003C00088ED00E08C2200000000002000000020EA
:1003D0001FB50021039001AA44F20100CDE90111EB
:1003E00000F004F805B05DF804FB000072B6094B9C
:1003F000D3F8F020D20700D500BEBFF34F8FD968E5
:10040000054A01F4E0610A43DA60BFF34F8F00BF91
:10041000FDE700BF00ED00E00400FA0549B152B16C
:10042000531E1A4007D1826001608380C26010466B
:1004300070470E2070470920704710B58468C26865
:100440008388121B934208D3C26813400268D154B8
:10045000C3680133C360002010BD0420FCE782683C
:10046000C3689A420AD08268838813400268D35CCA
:100470000B7083680133836000207047052070474C
:100480000648074A03780749D35C012213B10430B8
:1004900000F05EBE0C3000F007BC00BF0000002082
:1004A000640000204C0000200648074A03780749F2
:1004B000D35C012213B1043000F0FCBD0C3000F01D
:1004C000A3BB00BF00000020640000204D000020FE
:1004D00037B50578012D0DD0022D30D075B91F49E3
:1004E0001F48FFF7BCFF002834D103B0BDE83040FF
:1004F000FFF7DABF037A1BB9FFF7C2FF03B030BDC5
:100500004368184C19782046FFF797FF80B18DF8A3
:1005100000500190144B68461B689847A168E36837
:10052000A2885B1A9A42E7D2104B01221A70E5E7C3
:10053000A268E3689A42F1D08DF80000EAE7C36848
:100540008DF800500193FFF79BFF074B68461B682F
:100550009847D3E703238DF80030F6E74D000020DD
:100560003C0000202800002024000020380000204B
:10057000F0B51F46234B89B004461A600D4600298A
:100580003DD08A8820480968FFF748FF002834D109
:10059000AA89A9681D48FFF741FF00282DD11C4EEC
:1005A0000FCE6D460FC596E80F0085E80F00636912
:1005B0000693237C174A18488DF81C70003B18BF1F
:1005C00001238DF81430637C002B14BF0E2300230D
:1005D0008DF81530E3680293A368039323680193B1
:1005E00069466368009300F0E5F830B90B4B18706A
:1005F0002368013301D0FFF743FF09B0F0BD0720A6
:10060000FBE700BF24000020280000203C00002061
:100610008C220000D10400000000002038000020DF
:1006200070B5084D014608482E78FFF718FF0446BC
:1006300036B100232B70FFF723FF08B1FFF7C8FE88
:10064000204670BD380000202800002010B501466B
:100650000E48FFF7F2FE0446A8B90D480D4A03788C
:10066000D35C63B1043000F019FD60B90A49074852
:10067000FFF7F5FE38B9BDE81040FFF715BF0C30A5
:1006800000F0B6FAF1E7204610BD00BF3C000020A4
:1006900000000020640000204D00002072B6024AD5
:1006A000136801331360704750000020034A136839
:1006B000013B136003B962B6704700BF50000020D1
:1006C000FFF7ECBFFFF7F2BF074B1B5C1F2B86BF8A
:1006D000064903F01F034FF0A041012202FA03F381
:1006E000C1F80835704700BFAC220000000300507D
:1006F00008B50020FFF7E8FF0120FFF7E5FF022023
:10070000FFF7E2FFBDE808400320FFF7DDBFC207A7
:1007100010B504460CD54FF0A0430322C3F834278C
:10072000C3F83827C3F83C27C3F84027FFF7E0FF9A
:10073000A3070AD54FF0A0430C22C3F82C27C3F817
:100740003027C3F86027C3F8642710BD1FB50378AE
:100750008DF800304368019383688DF80830C368D2
:10076000054A0393054B684653F8213052F821108F
:10077000984705B05DF804FB540000205C000020A1
:100780001FB503788DF800304368019383688DF8B6
:100790000830C368054A0393054B684653F8213077
:1007A00052F82110984705B05DF804FB5400002072
:1007B0005C000020F0B5194B90F800C0DFF86CE049
:1007C00043F82C20164B16460A6943F82C204B7F21
:1007D0000EF80C300C4607460FCC89B06D460FC59D
:1007E00094E80F0085E80F003B78CDF810C01EF8A4
:1007F00003304BB1002E0B4A694608BF3246381D04
:1008000000F070FB09B0F0BD002E074A694608BF32
:10081000324607F10C0000F01BF9F3E75C00002002
:10082000540000204D0700008107000064000020F4
:10083000014B1B68184700BF6800002038B50B4B00
:1008400098420C4601D0002038BD0020FFF738FF49
:10085000074B1D7915B901221C601A710020FFF7A2
:1008600031FF002DEFD01120EEE700BF0020004047
:10087000680000200023435082B043580193019B3D
:1008800002B070470A4610B54FF48E71FFF7F2FFC1
:10089000136A9168C95C136A01331362C0F81C15AE
:1008A00010BD024608B500684FF49271FFF7E2FFF1
:1008B00010684FF48471FFF7DDFF136801221A609E
:1008C00008BD8B690A4610B54FF4847123B9FFF750
:1008D000D1FFD0F8183510BDFFF7CCFF536AD168AF
:1008E000D0F81805C854536A01335362F3E7000087
:1008F0001FB501238DF80030044BCDE90110D3E979
:1009000000126846904705B05DF804FB70000020B7
:1009100030B54D4DD5F804339A0585B051D5D5F88D
:100920002431002B4DD04FF492712846FFF7A2FFDF
:100930004FF40173C5F80833444B93F829200AB9E2
:1009400001226A60404902228DF80020D1F88024FB
:10095000C1F8802403929A690292DA680192002217
:10096000C3E906226846D3E9001290473648D0F81A
:100970001C315BB1354A5169136A99424DD992F8DD
:100980002830002B49D11146FFF77CFF2E48D0F8C4
:100990004431002B56D04FF4A271FFF76BFF2B4B65
:1009A00093F829200AB1012202609A69002A49D0ED
:1009B000586AD96800229A6105B0BDE83040FFF757
:1009C00097BFD5F804335B07D0D5D5F80831002B95
:1009D000CCD01E4C1C482146FFF773FF636AA26906
:1009E0009A42C3D1E369E1684BB1A3612369E36033
:1009F0000023606AE3616362FFF77AFFB6E794F869
:100A000029300BB901236B600F4B4FF40172C3F80F
:100A100008230023606AA361EEE70B484FF48E7150
:100A2000FFF728FF5369002BB0D0516902910023D2
:100A300091688DF80030019153616846D2E9001346
:100A40009847A3E705B030BD0020004070000020AB
:100A50002DE9F843604D90F804802C2303FB0853E4
:100A6000064693F82A300C469146002B40F0AF80A2
:100A70005A490068FFF7E2FE0746002840F0A980C7
:100A80002268531C10D01F2A87BF554902F01F034C
:100A900013464FF0A0410120984003F5E073C1F8E0
:100AA0000805032041F823006168481C0DD01F2968
:100AB0008BBF01F01F030B4649484FF0A04003F5E0
:100AC000E0734FF0000C40F823C03068A369C0F811
:100AD000243594F814C0637DBCF1010F4CEA030384
:100AE000C0F86C35C0F81415C0F80C252BD1A368DC
:100AF000591C0DD01F2B8BBF03F01F021A4638491B
:100B00004FF0A04102F5E0724FF0000C41F822C016
:100B1000E1684A1C13D01F2987BF314A01F01F0C1E
:100B20008C464FF0A0424FF0010E0EFA0CFE0CF571
:100B3000E07CC2F808E54FF0030E42F82CE0C0F864
:100B40000815C0F810352C2202FB08F2AB18C3F8C8
:100B500004902369AB50B9F1000F20D04FF48E718F
:100B6000247FFFF787FE4FF4A2713068FFF782FE03
:100B700032681C4BC2F80433130B42F30732610195
:100B8000002AC9B21EDB1848841884F8001301211A
:100B9000520903F01F0301FA03F340F822303368CF
:100BA0000422C3F800252C2303FB08530022C3E9C9
:100BB000062283F829205A61012283F82A20384628
:100BC000BDE8F883094A03F00F03D154E7E708278B
:100BD000F5E71127F3E700BF7000002011090000BE
:100BE000000300508000020000E100E014ED00E08E
:100BF0000279044B2C2101FB02335869003818BFDD
:100C000001207047700000202DE9F84F064690F84B
:100C1000048089469246FFF7EBFF044600283CD14A
:100C2000204F2C2508FB057B4FF48E71CBF814A0C8
:100C3000CBF80890CBF820008BF828003068FFF73D
:100C400019FE3068012383605946FFF71BFEDBF86D
:100C500004305D461BBB3068DBF814402B6A9C42B5
:100C600011D83368D3F81C21002AFBD00122DA60A6
:100C700000202C2303FB087700237B61BDE8F88F5D
:100C800095F828303BB9D0F81C31002BF8D05946E4
:100C9000FFF7F8FDE2E70F20EBE71120EEE7204633
:100CA000ECE700BF700000202DE9F0473A4D0779CE
:100CB0002C2303FB075306465C6824B103684FF4FA
:100CC0000170C3F808032C2303FB0753986950B144
:100CD000D869002841D024B133684FF40172C3F8B9
:100CE0000423112436E09A61D9605862D8612C231C
:100CF00003FB075393F829301BB910B93046FFF7AF
:100D0000D0FD4FF02C0808FB075A3068DAF80430A1
:100D1000002B37D14FF4A271D046FFF7ABFD3068FE
:100D2000D0F82491D0F80831D0F84441CBB914B9A7
:100D3000B9F1000FF3D02C2303FB07550023AB615F
:100D4000B9F1000F24D12CBB95F82910336801228A
:100D5000B1B11A602046BDE8F0871961DA6101205F
:100D6000C5E7B9F1000FE6D1002CE4D14146FFF709
:100D7000A8FDDAF82430DAF818209A42CFD8DAE75A
:100D80005A60E7E74FF40173C0F804330024E1E749
:100D90000324DFE70F24DDE7700000200023435029
:100DA00082B043580193019B02B070471FB50123E5
:100DB0008DF80030044BCDE90110D3E900126846EC
:100DC000904705B05DF804FB9C0000207FB5434AC6
:100DD000D2F82461002E60D010464FF49271FFF7D4
:100DE000DDFF02238DF80030D2F88034C2F8803461
:100DF0000393D2F83C350293394BDA680192002212
:100E0000C3E906226846D3E9001290473348D0F878
:100E1000443173B14FF4A271FFF7C0FF304B9A69B0
:100E20003AB10022C3E90622D968D0F83C05FFF7A1
:100E3000BDFF2A48D0F82031ABB14FF49071FFF7D5
:100E4000ADFF0123C360264B5A6962B1D0F84C153F
:100E50000291002299688DF8002001915A6168463C
:100E6000D3E9001290471D48D0F858319BB14FF498
:100E7000AC71FFF793FF1A4B5A6962B1D0F84C1569
:100E80000291002299688DF8002001915A6168460C
:100E9000D3E90012904704B070BDD2F81031002B96
:100EA000B4D04FF488711046FFF778FF0C4BD2F89E
:100EB0003C0599698842A9D1DC69D96864B1D2F846
:100EC000005225F02005C2F800521A699C61DA60D0
:100ED000DE61FFF76BFF99E79C61FAE700200040B5
:100EE0009C0000202DE9F843664E90F804802423EE
:100EF00003FB0863044693F820300D469146002B0F
:100F000040F0BC8060490068FFF798FC0746002865
:100F100040F0B68029684B1C10D01F2987BF5B4A60
:100F200001F01F030B464FF0A0420120984003F54B
:100F3000E073C2F80805032042F823006A68501CD9
:100F40000DD01F2A8BBF02F01F0313464F484FF0EE
:100F5000A04003F5E0734FF0000C40F823C0206878
:100F6000AB69C0F8243595F814C06B7DBCF1010F56
:100F70004CEA0303C0F86C35C0F80C15C0F8142512
:100F80002BD1AB68591C0DD01F2B8BBF03F01F0258
:100F90001A463E494FF0A04102F5E0724FF0000CB6
:100FA00041F822C0E9684A1C13D01F2987BF374A7D
:100FB00001F01F0C8C464FF0A0424FF0010E0EFACC
:100FC0000CFE0CF5E07CC2F808E54FF0030E42F889
:100FD0002CE0C0F80815C0F81035242202FB08F2F6
:100FE000B318C3F804902B69B350B9F1000F2FD098
:100FF0004FF488712A7FFFF7D1FE20684FF490717B
:10100000FFF7CCFE20684FF49271FFF7C7FE20680F
:101010004FF4A271FFF7C2FE4FF4AC712068FFF7E6
:10102000BDFE23681A49C3F80413190B43F30733B1
:101030005201002BD2B21CDB1648C51885F80023DC
:1010400001225B0901F01F0102FA01F140F82310AF
:1010500023680822C3F80025242303FB0866002325
:10106000C6E906337361012386F820303846BDE8AF
:10107000F883094B01F00F015A54E9E70827F5E717
:101080001127F3E79C000020CD0D00000003005065
:101090001003420000E100E014ED00E00279044B8F
:1010A000242101FB02335869003818BF0120704722
:1010B0009C00002001F06043B3F1005F2DE9F04790
:1010C0000646884692463BD190F80490FFF7E6FF2B
:1010D0000446002836D11D4F3068242505FB0975CC
:1010E0004FF49071C5F814A0C5F80880FFF756FEBC
:1010F0004FF4AC713068FFF751FE33686A69A96834
:10110000C3F84415C3F8482501229A606A68DAB921
:10111000D3F82021D3F858011AB90028F8D00F20AD
:1011200007E00028FBD10122DA60D3F85821002A19
:10113000FBD0242303FB097700237B61BDE8F08704
:101140001020FBE71120F9E72046F7E79C0000207C
:10115000F8B501F06043B3F1005F04460F465ED17D
:101160000379304D242101FB0351496821B1006806
:101170004FF40476C0F80863242000FB03539E69F3
:1011800056B1D869002839D021B123684FF40472D0
:10119000C3F80423112030E09A61DF60DE6120682B
:1011A0004FF48871FFF7FAFD20684FF4A271FFF742
:1011B000F5FD2368C3F83475C3F8382516BB012242
:1011C0001A602479242202FB045252680ABBD3F825
:1011D0001011D3F84421D3F82401114302D100287F
:1011E000F5D00A46242303FB04550023984218BF78
:1011F00003209A42AB6118BF0F20F8BD1F61DA616E
:101200000126CCE7D3F8002242F02002C3F80022E6
:10121000D7E74FF40472C3F804230020EDE7102051
:10122000EBE700BF9C0000200378022B02D140684E
:10123000FFF7CEB8012BFAD070470000F0B52B4D68
:101240008BB00120FFF763FA0FCD04AC0FC495E813
:101250000300274B274A00934FF4807384E8030070
:10126000CDE902230193244A0723694604A8FFF726
:101270007FF908B1FFF7ACF800F002FA054680BB31
:101280000646044600F066FA07466846FFF7C8F9C6
:101290000028F7D19DF800301CB91E023D460124FC
:1012A000F0E705F11502BA429BB202D21E023D469A
:1012B000E8E71E43304600F0E7FB04A800F0A6FB79
:1012C00004460028DED09DF81100FFF7BFF9002882
:1012D000F9D19DF81000FFF7B9F904460028F8D1BC
:1012E000D0E74FF0FF300BB0F0BD00BFB0220000E0
:1012F000C0000020C0010020291200000F4B032273
:10130000C3F80825A3F5F0330022C3F80022C3F880
:10131000102101221A61D3F81021002AFBD00022EB
:101320000749C3F810215A601A600A80D3F81425BF
:1013300022F47022C3F81425704700BF00F001406A
:10134000E405002008B500F009FE084B012000224A
:10135000C3F80805C3F81025C3F81425A3F5B03366
:101360001861FFF7CBFF024B187008BD00F0014079
:10137000E605002038B51E4C1E4D2178286800F087
:10138000F7FD20B11C4B01221A80042038BDFFF765
:10139000B5FF1A4B2A68C3F80C252178C3F810153D
:1013A000D3F8242522F0FF02C3F82425D3F82425FE
:1013B00042F07102C3F82425114AC3F81C2501220A
:1013C000C3F8302540F20312C3F82C05C3F83425C6
:1013D0000C4A127803391206012988BF42F0C14233
:1013E00042F48472C3F81425074AC3F81825CDE7E0
:1013F00019000020E8050020CC0400200010004067
:1014000000294176CF040020FF000300124AD0B12A
:10141000D2F83C3723F0004323F0FF0343F00043AE
:1014200043F07D03C2F83C37D2F87C3723F0004309
:1014300023F0700343F0004343F06003C2F87C37AD
:10144000064B18707047064BC2F83C37D2F87C3711
:1014500023F00043F2E700BF00100040E705002042
:101460003430004038B5044600F078FD6B4B1978F5
:10147000002970D094B3032947D1694B1522C3F8D2
:1014800030291722C3F834291A22C3F838291B221D
:10149000C3F83C291C22C3F840291D22C3F8442963
:1014A0001E22C3F848291F22C3F84C290122C3F881
:1014B0002829C3F828295B4A12788AB1012A15D154
:1014C000594A12780020013085B2AA427ED2013AF0
:1014D00092B25AB1C3F82829013AFAE70229CBE7B8
:1014E00051480578013290B285426CD24C4B4F483E
:1014F000D3F8102922F4E062C3F81029D3F8102998
:10150000007842EA0022C3F81029454BC3F80019BD
:10151000D3F8142542F40022C3F81425D3F8042983
:10152000002C56D042F00102C3F80429D3F8042954
:1015300042F00802C3F80429D3F8042942F000520B
:1015400042F40012C3F80429394AC3F850294FF471
:101550000072C3F85429324B40F25B62C3F838255D
:10156000344AC3F83C25344A126852000232C3F8A8
:101570000825324AC3F804250022C3F800210122BD
:10158000C3F80022D3F80022A9B342F48012C3F8B2
:101590000022D3F8002242F01002C3F80022D3F850
:1015A000002242F48072C3F80022254A12782CB33C
:1015B00012B10120FFF72AFF194B0022C3F80C21BA
:1015C00001225A6038BDC3F828298BE7C3F82809DF
:1015D00079E722F00102C3F80429D3F8102922F098
:1015E0003F02C3F81029174AD3F8100912780243B2
:1015F000C3F81029AFE742F00202C8E712490978A0
:10160000C3F80C15002ADDD0104B0122DA605A60B5
:10161000C3F84041C3F84441D4E700BFC5040020EB
:1016200000100040C2020020C1020020180000206B
:10163000C402002055555500DC050020D8040020C8
:10164000C0020020C6040020E805002000900040F1
:10165000024B01221A649A63704700BF00100040D9
:10166000064B0022C3F81C2101225A61D3F81C2129
:10167000002AFBD0D3F84805C0B2704700100040E4
:1016800038B54FF080430022C3F8002101221A60D0
:10169000D3F80021002AFBD0264B1B68002201242E
:1016A0004FF480315C600425DC60C3F80425C3F886
:1016B0004021C3F84421C3F84821C3F84C21C3F8A2
:1016C000041340F6C411C3F80042C3F81055C3F820
:1016D00040154FF48271C3F844151C60164B1A6014
:1016E000164B40F2E2415C60DC60C3F80425C3F8AD
:1016F0004021C3F84421C3F84821C3F84C21C3F862
:101700004015C3F844250E4A4FF40071C2F8801109
:101710000722C3F81025FFF72DFE48B9094B1870B2
:10172000094B1C70094B1860094BC3F8404538BD84
:101730002846FCE71C000020C80400200090004060
:1017400000E100E0CE040020E6050020D0040020E7
:1017500000E001402DE9F843984E994C3378042B72
:101760000BD1D4F80421012A07D10021C4F80411B7
:101770009449097809B194490A61D4F80C21002AE6
:1017800038D0924A00210220042BC4F80C11C2F870
:1017900080012FD18B4B1B78012262606BB18A4B89
:1017A00040F2E240C3F840053F20C3F84405DA6048
:1017B000C3F84011C3F844111A60D4F80034012B67
:1017C00012D1834A834B1778834A1D781278002FF1
:1017D000A2F1030C14BF03200220BCF1010F05F09D
:1017E0000F0170D8022974D97A484FF48172002110
:1017F00000F018FDD4F81C3163B1784A0023C4F816
:101800001C311368D4F848150B441360744A1368EC
:10181000013313603378042B0CD1D4F80031012B41
:1018200008D10022C4F80021664A127812B1664A33
:10183000D36013606B4B1B68D3F84021002A00F083
:1018400093800022C3F840215F4BD3F84031012B35
:101850001ED1FFF705FF644B1B78002B00F0A08022
:101860005F2802D90020FFF7D1FDFFF7F1FE564BAC
:1018700040F2E242C3F84025002101225A60DA60BA
:10188000C3F840111A60514B4FF40072C3F8802125
:101890004D49D1F84431002B3FF460AFFFF7E0FE33
:1018A0005E288CBF00200120FFF7B0FDFFF7D0FEBF
:1018B0000023C1F84435C1F84431444B4FF4007261
:1018C000C3F880214AE7053A012A02D815F00C0F27
:1018D0008AD15A7851B94549184400F043FC002890
:1018E00082D1434A1388013313807DE7012930D028
:1018F000022930D003297FF477AFFF251844002157
:101900005FFA81FC944528D3002FEAD093F8029027
:10191000384B39481D78394BD4F858791B784FF437
:101920000072022B4FF000010CBF4FF002084FF085
:10193000040800F077FC324B1B784B457FF454AF22
:10194000ED00B5FBF8F50835EDB2FFB2BD42C8D0E9
:101950004AE70F25D2E75525D0E710F801CBAC4573
:1019600001F10101CCD03FE7D3F8441100293FF445
:101970006BAFC3F84421234B93F90030002B09DBF4
:101980005A09012103F01F0301FA03F360320F49E2
:1019900041F822301C4B186801301860BDE8F8830C
:1019A000D4F874354FF6F072134204D0B3F5003F0B
:1019B00001D2012057E75E28FBD956E7E605002053
:1019C00000100040C00200200090004000E100E054
:1019D000C5040020D80400201900002014000020B5
:1019E000E00500201C000020E7050020C8220000C0
:1019F000E4050020C6040020C402002018000020D6
:101A0000C40400201A000020C8040020044B002158
:101A10001A781970034B1B8803601046704700BF8B
:101A2000CE040020CC04002010B50B4B1B7810F026
:101A3000300FC4B218BF44F0C004012B01D90020FC
:101A400010BD064B2046197800F092FA0028F6D116
:101A5000034B01201C60F3E7E6050020190000207D
:101A6000E8050020054B1B78012B024603D80449EA
:101A7000044800F097BA0020704700BFE605002038
:101A80001A0000201C0000202DE9F047994B9A4EC7
:101A90009A4D01211970337800240746820B2C805F
:101AA000002B00F00D82002A40F01081C4B2FFF735
:101AB00049FC3B0A092B0DD8DFE813F00A001E0091
:101AC00027005D0060006600CE00F300FD007D0091
:101AD000032C01D901238EE0894B00201860894B2B
:101AE00003221A70884B1870884B1870884B01229B
:101AF000C3F82C29BDE8F0870F2CEBD8804B2401CC
:101B000004F0C0041C600020F4E7231F032B10D84E
:101B10007C4B03221A707C4B00201870FFF776FC78
:101B20007C4B01221A617C4B1870BDE8F047FFF72F
:101B300021BCA4F10803032B0BD8724B04221A70AA
:101B4000714B012100201970FFF760FC714B196186
:101B5000E9E7A4F10C03032B06D86A4B05221A709F
:101B6000694B03221A70E0E7A4F110000328B1D8F2
:101B7000644B0622F3E7032CC5D9ABE7032CA9D8A5
:101B800040F2F6332B80BEE7032C02D84FF4FF73EC
:101B9000F8E7231F032B02D844F29023F2E7A4F1C5
:101BA0000803032BF2D9A4F10C03032BF4D9102C56
:101BB00090D12823E6E77FB27E2F05D1574BD8225C
:101BC0001A604FF46C73DDE77F2F05D1534B082269
:101BD0001A604FF48263D5E77F34E4B2932C12D9B4
:101BE0004E4B1A685300D82A03F4FF7306D143F40E
:101BF000007343F001032B8004207BE7082A08BF11
:101C000043F48063F5E717F1270FD7DB072FDDDCFF
:101C1000DFF82481012458F824904FFA89F0874294
:101C200016DAC01B013C00F099FA58F82440064629
:101C300060B2C01B00F092FA76B2384B8642B8BF51
:101C40004C461C60354B1B685B0003F4FF7399E73F
:101C500001340F2CDFD1F5E7314A04F01F03137074
:101C6000304A147014B9294B1C704CE7023B122BFC
:101C70003FF630AFA009012808D002280CD0002878
:101C80007FF428AF214B03221A7033E71F4A022347
:101C90001370254A137036E71C4B1870224B012233
:101CA00003E0012C03D1204B02221A702BE7022CF7
:101CB0007FF410AFF2E71D4A04F03F0313701C4A93
:101CC00024F07F00013B10700B2B55E7032A5FFACD
:101CD00082FA33D1012B03D101232B80022009E7A3
:101CE000144B1B886FEA43436FEA53432B80FFF783
:101CF00029FB08E7CE040020E6050020CC040020E4
:101D0000D004002019000020CF040020C5040020CA
:101D10000010004000900040C0020020E8050020B4
:101D2000C6040020C404002018000020C1020020C6
:101D3000C2020020E4050020C8230000012BCBD103
:101D4000DFF80C92764BDFF80C82D9F80020DFF830
:101D500008C2C0F38501C0F30520186098F8003070
:101D600002F0C002033B07F003070A43012BC9F846
:101D70000020CCF8007016D8032F16D1FF23CCF822
:101D80000030684B0024BAF1010F1C8012D14FF4CF
:101D900081722146644800F045FA5046FFF762FB25
:101DA00004233370AFE6032FEBD02728E9D90120B5
:101DB00028809FE65D4FDCF800303C78002C5A4CC0
:101DC00014BF4FF0030C4FF0020C032B627006D8C7
:101DD000013B022B18D8DFE803F03B434700FF2B01
:101DE0007FF478AE05293FF68EAE01A353F821F0BB
:101DF000711E0000711E0000891E0000951E00006B
:101E0000071B00009B1E000000234949237004EBC0
:101E10000C0000F0DEF93B7833B1237843F0200367
:101E20002370444B1B78A3700020FFF71BFB98F82E
:101E300000204149D9F800300868042A67D0032AF5
:101E400067D0052A3ED0062A65D00021DB003CE0A1
:101E5000012323700F2104EB0C0000F0E3F9DAE713
:101E6000022323705521F6E704232370FF21F2E7B4
:101E70000020FFF7F7FA00F073F8304B0122C3F8A7
:101E800000221A6003238CE7FFF7CEFD00287FF4C1
:101E90003AAE1FE6FFF7E6FDF8E729490B68FF2B8E
:101EA0003FF41AAF274A1068B3FBF0F3DBB26FEAD6
:101EB000434300206FEA53432B800860106019E60B
:101EC000052017E69B014FF434710B443978042A3E
:101ED00008BF5B0821B11C49097802EBC102134419
:101EE00040F27122F9331146994202F27122FAD37B
:101EF000164BC0F84015114A00F5A070C3F8100544
:101F0000C3F814250122C3F80425022349E7582108
:101F10009CE750219AE71B014FF4E771D5E700BF1A
:101F2000DC050020E4050020D8040020C5040020C2
:101F3000C8220000C40400201C0000200010004043
:101F400014000020E0050020C604002000F001403D
:101F5000D004002019000020D404002070470000A5
:101F6000024B4FF40072C3F8502670470010004037
:101F7000831E062B0CD958B1A0F1E2021A2A03D80D
:101F8000074BD340DB0703D420F02000D82805D12D
:101F90000339032994BF00200420704704207047B0
:101FA000014404042AB9104B036008230B7001207C
:101FB0007047012A03D10D4B03600923F6E7022A7B
:101FC00003D10B4B03600A23F0E7032A03D1094B2B
:101FD00003601A23EAE7042A03D1074B03601B239B
:101FE000E4E70020704700BF008000400090004000
:101FF00000A0004000A0014000B001404FF080531D
:10200000D3F830210D2A55D14FF080410022C1F87C
:102010000C21C1F81021C1F838254A4AD3F804042C
:10202000C2F82005D3F80804C2F82405D3F80C043C
:10203000C2F82805D3F81004C2F82C05D3F814040C
:10204000C2F83005D3F81804C2F83405D3F81C04DC
:10205000C2F84005D3F82004C2F84405D3F824049C
:10206000C2F84805D3F82804C2F84C05D3F82C046C
:10207000C2F85005D3F83004C2F85405D3F834043C
:10208000C2F86005D3F83804C2F86405D3F83C04FC
:10209000C2F86805D3F84004C2F86C05D3F844349C
:1020A000C2F87035D1F80034DB0744BF6FF001038C
:1020B000C1F80034244AD2F8883043F47003C2F8DF
:1020C0008830BFF34F8FBFF36F8F4FF01023D3F8DB
:1020D0000022002A03DBD3F80432002B2EDA1B4B3C
:1020E0000122C3F80425D3F80024002AFBD04FF0C6
:1020F00010221221C2F80012D3F80024002AFBD0CB
:102100004FF010231222C3F80422104BD3F80024FE
:10211000002AFBD00022C3F80425D3F80024002AAB
:10212000FBD0BFF34F8F0849094BCA6802F4E06245
:102130001343CB60BFF34F8F00BFFDE7054B064A4B
:102140001A60704700C0004000ED00E000E0014070
:102150000400FA05200000200090D0030028B8BF3A
:10216000404270479AB330B594460F2A18D90246B8
:102170000B4640EA010414F0030F02D00CF1FF3CBF
:1021800011E019461046043204330C680568A54274
:1021900006D110461946ACF1040CBCF1040FF0D87E
:1021A000BCF1010C0FD00A46034684441146184680
:1021B00001330132047891F800E0744503D11846E8
:1021C00011466345F2D100780B78C01A30BD00206B
:1021D0007047844640EA010313F0030F18D1844688
:1021E000202A0BD32DE9F007B1E8F807A0E8F8079B
:1021F000A2F12002202AF7D2BDE8F007042A07D373
:1022000051F8043B40F8043BA2F10402042AF7D23F
:10221000002A05D011F8013B00F8013B013AF9D141
:10222000604670478446002A2DD010F0030F04D07A
:1022300000F8011B013A26D0F7E7C9B241EA0121B3
:1022400041EA0141202A12D3A2F120022DE9F00334
:102250000B460C460D460E460F4688468946A0E8BA
:10226000FA03203AFBD2BDE8F00320320BD0042A57
:1022700005D340F8041B043A05D0042AF9D200F82B
:0A228000011B013AFBD160467047D4
:10228C00FFFFFFFFFFFFFFFFFFFFFFFFFFFFFFFF52
:10229C0000000000000000000000D6010601000054
:1022AC000D0E0F10080000000600000005000000D5
:1022BC00070000000000000000A04E00FFC1FBE87A
:1022CC004C90728BE7B3518963AB23230284187251
:1022DC00AA612F3B51A8E53749FBC9CA0C18532CEE
:1022EC00FD45E39AE6F15DB0B61BB4BE2A50EAE9AF
:1022FC000E9C4B5E5724CCA1B759B887FFE07D7478
:10230C002648B9C5F3D9A8C4B1D5911101420C39ED
:10231C00D5B0979D28D4F29BA4FD6465068C2996B4
:10232C00FEA2714DF3F82E58DB0D5A5F1528F5748B
:10233C0007CE25AF2B12E6D0DB2CDCC37FF03E3A68
:10234C0013A4DCE2F96C54E2D8EAC8880021869C1C
:10235C006AD8CB4E146AF94DD27EB23203C6144BF6
:10236C007FD1B8A6797C17ACED06ADAF0A947ABADA
:10237C0003E792D7150973E86D16EEE13F781F9DC0
:10238C0009526EF17C362A716C7564448010434E90
:10239C0035EC65270AB5FC26693F599901638AA576
:1023AC00BF685CD33CBE0BD67683D657054A3DDD61
:1023BC008173C9EB8A8439F4360BF700D80000001E
:1023CC00E2000000EC000000F0000000F40000004F
:1023DC00F8000000FC0000000000000002000000FB
:1023EC0003000000040000000500000006000000CF
:0823FC000700000008000000CA
:102404000000000000200040000000000020004008
:1024140000000000FF0000000103080000800040ED
:042424000090D00351
:040000030000037581
:00000001FF
