:1000000000000120750300005D0300005F03000095
:1000100061030000630300006503000000000000AE
:100020000000000000000000000000006703000066
:1000300069030000000000006B0300006D03000076
:100040006F0300006F030000210800006F03000031
:100050006F0300006F0300006F0300006F030000D8
:100060006F0300006F0300006F0300006F030000C8
:100070006F0300006F0300006F0300006F030000B8
:100080006F0300006F0300006F0300006F030000A8
:100090006F0300006F0300006F0300006F03000098
:1000A0006F0300006F0300006F0300006F03000088
:1000B0006F0300006F03000000000000000000005C
:1000C0006F0300006F0300006F0300006F03000068
:1000D0006F0300006F0300006F03000000000000CA
:1000E0000000000000000000000000000000000010
:1000F0000000000000000000000000000000000000
:1001000000000000000000000000000000000000EF
:1001100000000000000000000000000000000000DF
:1001200000000000000000000000000000000000CF
:1001300000000000000000000000000000000000BF
:1001400000000000000000000000000000000000AF
:10015000000000000000000000000000000000009F
:10016000000000000000000000000000000000008F
:10017000000000000000000000000000000000007F
:10018000000000000000000000000000000000006F
:10019000000000000000000000000000000000005F
:1001A000000000000000000000000000000000004F
:1001B000000000000000000000000000000000003F
:1001C000000000000000000000000000000000002F
:1001D000000000000000000000000000000000001F
:1001E000000000000000000000000000000000000F
:1001F00000000000000000000000000000000000FF
:10020000354936480A1A02D0072291438D463449AF
:1002100034480A1A06D00722914381F30988022242
:1002200082F3148830483149314A00F044F83148AB
:100230003149324A00F03FF831483249324A00F041
:100240003AF832483249334A00F035F832483349F7
:10025000334A00F030F833483349344A00F02BF881
:1002600033483449344A00F026F8344834490022EF
:1002700000F02CF833483449002200F027F83348C6
:100280003349091A082902DB002202604160314A21
:1002900090471F481F49884205D00268043003B4C4
:1002A000904703BCF7E700208646EC46002000217B
:1002B000294A9047FEE7884207D0521A05D00378B2
:1002C00001300B700131013AF9D17047884202D0F8
:1002D00002700130FAE770470000012000E00020C2
:1002E0000000012000000120E421000000000020A7
:1002F00024000020D0030000D00300007220000082
:10030000E421000000000020000000207420000014
:10031000742000007420000074200000742000008D
:10032000742000007420000074200000E42100000C
:1003300008220000240000202400002024000020C7
:10034000E0030020E0030020E0030020E0030020A1
:10035000E02300209D030000C1110000FEE7FEE73E
:10036000FEE7FEE7FEE7FEE7FEE7FEE7FEE7FEE765
:1003700000F002B8FFF7FCBF0F484FF007018843B9
:1003800085460E4880470E48016841F470010160BF
:10039000BFF34F8FBFF36F8FFFF732BF09480A4992
:1003A0000A4A884207D0521A05D0037801300B70F0
:1003B0000131013AF9D1704700000120C51C00004D
:1003C00088ED00E074200000000000200000002004
:1003D0001FB50021039001AA44F20100CDE90111EB
:1003E00000F004F805B05DF804FB000072B6094B9C
:1003F000D3F8F020D20700D500BEBFF34F8FD968E5
:10040000054A01F4E0610A43DA60BFF34F8F00BF91
:10041000FDE700BF00ED00E00400FA0549B152B16C
:10042000531E1A4007D1826001608380C26010466B
:1004300070470E2070470920704710B58468C26865
:100440008388121B934208D3C26813400268D154B8
:10045000C3680133C360002010BD0420FCE782683C
:10046000C3689A420AD08268838813400268D35CCA
:100470000B7083680133836000207047052070474C
:100480000648074A03780749D35C012213B10430B8
:1004900000F020BE0C3000F0E3BB00BF00000020E5
:1004A0005C0000204C0000200648074A03780749FA
:1004B000D35C012213B1043000F0BEBD0C3000F05B
:1004C0007FBB00BF000000205C0000204D0000202A
:1004D00037B50578012D0DD0022D30D075B91F49E3
:1004E0001F48FFF7BCFF002834D103B0BDE83040FF
:1004F000FFF7DABF037A1BB9FFF7C2FF03B030BDC5
:100500004368184C19782046FFF797FF80B18DF8A3
:1005100000500190144B68461B689847A168E36837
:10052000A2885B1A9A42E7D2104B01221A70E5E7C3
:10053000A268E3689A42F1D08DF80000EAE7C36848
:100540008DF800500193FFF79BFF074B68461B682F
:100550009847D3E703238DF80030F6E74D000020DD
:100560003C0000202800002024000020380000204B
:10057000F0B51F46234B89B004461A600D4600298A
:100580003DD08A8820480968FFF748FF002834D109
:10059000AA89A9681D48FFF741FF00282DD11C4EEC
:1005A0000FCE6D460FC596E80F0085E80F00636912
:1005B0000693237C174A18488DF81C70003B18BF1F
:1005C00001238DF81430637C002B14BF0E2300230D
:1005D0008DF81530E3680293A368039323680193B1
:1005E00069466368009300F0DDF830B90B4B187072
:1005F0002368013301D0FFF743FF09B0F0BD0720A6
:10060000FBE700BF24000020280000203C00002061
:1006100074200000D10400000000002038000020F9
:1006200070B5084D014608482E78FFF718FF0446BC
:1006300036B100232B70FFF723FF08B1FFF7C8FE88
:10064000204670BD380000202800002010B501466B
:100650000E48FFF7F2FE0446A8B90D480D4A03788C
:10066000D35C63B1043000F0DBFC60B90A49074891
:10067000FFF7F5FE38B9BDE81040FFF715BF0C30A5
:1006800000F092FAF1E7204610BD00BF3C000020C8
:10069000000000205C0000204D00002072B6024ADD
:1006A000136801331360704750000020034A136839
:1006B000013B136003B962B6704700BF50000020D1
:1006C000FFF7ECBFFFF7F2BF044B1A5C0123934026
:1006D0004FF0A042C2F80835704700BF94200000D8
:1006E00008B50020FFF7F0FF0120FFF7EDFF022023
:1006F000FFF7EAFFBDE808400320FFF7E5BFC207A8
:1007000008B501460CD54FF0A0430322C3F8442797
:10071000C3F84827C3F84C27C3F85027FFF7E0FF7A
:100720008B070AD54FF0A0430C22C3F83427C3F837
:100730003827C3F83C27C3F8402708BD1FB5037806
:100740008DF800304368019383688DF80830C368E2
:10075000054A0393054B684653F8213052F821109F
:10076000984705B05DF804FB5400002058000020B5
:100770001FB503788DF800304368019383688DF8C6
:100780000830C368054A0393054B684653F8213087
:1007900052F82110984705B05DF804FB5400002082
:1007A00058000020F0B5194B90F800C091F81DE0FA
:1007B00043F82C20164B16460A6943F82C20154B9B
:1007C00003F80CE00C4607460FCC89B06D460FC508
:1007D00094E80F0085E80F00CDF810C0BEF1000FBF
:1007E00009D0002E0C4A694608BF3246381D00F079
:1007F00055FB09B0F0BD002E084A694608BF3246D5
:1008000007F10C0000F01CF9F3E700BF58000020CE
:10081000540000205C0000203D070000710700002C
:10082000014B1B68184700BF6000002038B50B4B18
:1008300098420C4601D0002038BD0020FFF740FF51
:10084000074B1D7915B901221C601A710020FFF7B2
:1008500039FF002DEFD01120EEE700BF002000404F
:10086000600000200023435082B043580193019B55
:1008700002B070470A4610B54FF48E71FFF7F2FFD1
:10088000136A9168C95C136A01331362C0F81C15BE
:1008900010BD024608B500684FF49271FFF7E2FF01
:1008A00010684FF48471FFF7DDFF136801221A60AE
:1008B00008BD8B690A4610B54FF4847123B9FFF760
:1008C000D1FFD0F8183510BDFFF7CCFF536AD168BF
:1008D000D0F81805C854536A01335362F3E7000097
:1008E0001FB501238DF80030044BCDE90110D3E989
:1008F00000126846904705B05DF804FB68000020D0
:1009000030B54D4DD5F804339A0585B051D5D5F89D
:100910002431002B4DD04FF492712846FFF7A2FFEF
:100920004FF40173C5F80833444B93F829200AB9F2
:1009300001226A60404902228DF80020D1F880240B
:10094000C1F8802403929A690292DA680192002227
:10095000C3E906226846D3E9001290473648D0F82A
:100960001C315BB1354A5169136A99424DD992F8ED
:100970002830002B49D11146FFF77CFF2E48D0F8D4
:100980004431002B56D04FF4A271FFF76BFF2B4B75
:1009900093F829200AB1012202609A69002A49D0FD
:1009A000586AD96800229A6105B0BDE83040FFF767
:1009B00097BFD5F804335B07D0D5D5F80831002BA5
:1009C000CCD01E4C1C482146FFF773FF636AA26916
:1009D0009A42C3D1E369E1684BB1A3612369E36043
:1009E0000023606AE3616362FFF77AFFB6E794F879
:1009F00029300BB901236B600F4B4FF40172C3F820
:100A000008230023606AA361EEE70B484FF48E7160
:100A1000FFF728FF5369002BB0D0516902910023E2
:100A200091688DF80030019153616846D2E9001356
:100A30009847A3E705B030BD0020004068000020C3
:100A40002DE9F843534D90F804802C2303FB085301
:100A5000064693F82A300C469146002B40F09680CB
:100A60004D490068FFF7E2FE0746002840F09080FD
:100A700022683068511C0BD04FF0A04101239340F5
:100A8000C1F8083502F5E0734FF0030C41F823C0BC
:100A900061684B1C1FBF01F5E0734FF0A04C4FF095
:100AA000000E4CF823E0A369C0F8243594F814C074
:100AB000637DBCF1010F4CEA0303C0F86C35C0F84C
:100AC0001415C0F80C251DD1A268531C1FBF02F5D8
:100AD000E0734FF0A0414FF0000C41F823C0E368F1
:100AE000591C0BD04FF0A04C01219940CCF80815AF
:100AF00003F5E0714FF0030E4CF821E0C0F8083523
:100B0000C0F810252C2202FB08F2AB18C3F80490A1
:100B10002369AB50B9F1000F20D04FF48E71247FC0
:100B2000FFF7A0FE4FF4A2713068FFF79BFE32681A
:100B30001A4BC2F80433130B42F307326101002A47
:100B4000C9B21EDB1648841884F80013012152092B
:100B500003F01F0301FA03F340F822303368042244
:100B6000C3F800252C2303FB08530022C3E9062207
:100B700083F829205A61012283F82A203846BDE8EB
:100B8000F883084A03F00F03D154E7E70827F5E795
:100B90001127F3E76800002001090000800002002F
:100BA00000E100E014ED00E00279044B2C2101FB90
:100BB00002335869003818BF0120704768000020D0
:100BC0002DE9F84F064690F8048089469246FFF7D3
:100BD000EBFF044600283CD1204F2C2508FB057B69
:100BE0004FF48E71CBF814A0CBF80890CBF820000E
:100BF0008BF828003068FFF735FE306801238360EA
:100C00005946FFF737FEDBF804305D461BBB306802
:100C1000DBF814402B6A9C4211D83368D3F81C21AE
:100C2000002AFBD00122DA6000202C2303FB087786
:100C300000237B61BDE8F88F95F828303BB9D0F8E8
:100C40001C31002BF8D05946FFF714FEE2E70F20C5
:100C5000EBE71120EEE72046ECE700BF680000203C
:100C60002DE9F0473A4D07792C2303FB075306463D
:100C70005C6824B103684FF40170C3F808032C23A7
:100C800003FB0753986950B1D869002841D024B1BB
:100C900033684FF40172C3F80423112436E09A61DB
:100CA000D9605862D8612C2303FB075393F829308D
:100CB0001BB910B93046FFF7ECFD4FF02C0808FBCC
:100CC000075A3068DAF80430002B37D14FF4A2719C
:100CD000D046FFF7C7FD3068D0F82491D0F808312E
:100CE000D0F84441CBB914B9B9F1000FF3D02C239B
:100CF00003FB07550023AB61B9F1000F24D12CBBD6
:100D000095F8291033680122B1B11A602046BDE878
:100D1000F0871961DA610120C5E7B9F1000FE6D16A
:100D2000002CE4D14146FFF7C4FDDAF82430DAF8AC
:100D300018209A42CFD8DAE75A60E7E74FF40173F8
:100D4000C0F804330024E1E70324DFE70F24DDE7E4
:100D5000680000200023435082B043580193019B58
:100D600002B070471FB501238DF80030044BCDE968
:100D70000110D3E900126846904705B05DF804FB06
:100D8000940000207FB5434AD2F82461002E60D041
:100D900010464FF49271FFF7DDFF02238DF800300B
:100DA000D2F88034C2F880340393D2F83C350293F1
:100DB000394BDA6801920022C3E906226846D3E97A
:100DC000001290473348D0F8443173B14FF4A27108
:100DD000FFF7C0FF304B9A693AB10022C3E90622FF
:100DE000D968D0F83C05FFF7BDFF2A48D0F820317C
:100DF000ABB14FF49071FFF7ADFF0123C360264BF9
:100E00005A6962B1D0F84C150291002299688DF8A8
:100E1000002001915A616846D3E9001290471D48AD
:100E2000D0F858319BB14FF4AC71FFF793FF1A4BD8
:100E30005A6962B1D0F84C150291002299688DF878
:100E4000002001915A616846D3E90012904704B02E
:100E500070BDD2F81031002BB4D04FF48871104619
:100E6000FFF778FF0C4BD2F83C0599698842A9D16D
:100E7000DC69D96864B1D2F8005225F02005C2F8C7
:100E800000521A699C61DA60DE61FFF76BFF99E737
:100E90009C61FAE700200040940000202DE9F8430F
:100EA0005A4E90F80480242303FB0863044693F809
:100EB00020300D469146002B40F0A3805449006835
:100EC000FFF7B4FC0746002840F09D802A682068A0
:100ED000511C0BD04FF0A04101239340C1F80835BD
:100EE00002F5E0734FF0030C41F823C069684B1C16
:100EF0001FBF01F5E0734FF0A04C4FF0000E4CF80F
:100F000023E0AB69C0F8243595F814C06B7DBCF1C3
:100F1000010F4CEA0303C0F86C35C0F80C25C0F88B
:100F200014151DD1AA68531C1FBF02F5E0734FF0C2
:100F3000A0414FF0000C41F823C0EB68591C0BD0C6
:100F40004FF0A04C01219940CCF8081503F5E07151
:100F50004FF0030E4CF821E0C0F80835C0F810251A
:100F6000242202FB08F2B318C3F804902B69B35093
:100F7000B9F1000F2FD04FF488712A7FFFF7EAFEF6
:100F800020684FF49071FFF7E5FE20684FF49271EE
:100F9000FFF7E0FE20684FF4A271FFF7DBFE4FF48D
:100FA000AC712068FFF7D6FE23681A49C3F8041312
:100FB000190B43F307335201002BD2B21CDB164846
:100FC000C51885F8002301225B0901F01F0102FA10
:100FD00001F140F8231023680822C3F800252423D8
:100FE00003FB08660023C6E906337361012386F814
:100FF00020303846BDE8F883084B01F00F015A5401
:10100000E9E70827F5E71127F3E700BF9400002080
:10101000850D00001003420000E100E014ED00E047
:101020000279044B242101FB02335869003818BFB0
:10103000012070479400002001F06043B3F1005F8D
:101040002DE9F0470646884692463BD190F8049039
:10105000FFF7E6FF0446002836D11D4F30682425EF
:1010600005FB09754FF49071C5F814A0C5F8088008
:10107000FFF770FE4FF4AC713068FFF76BFE33681A
:101080006A69A968C3F84415C3F8482501229A6023
:101090006A68DAB9D3F82021D3F858011AB90028C0
:1010A000F8D00F2007E00028FBD10122DA60D3F846
:1010B0005821002AFBD0242303FB097700237B61FE
:1010C000BDE8F0871020FBE71120F9E72046F7E79D
:1010D00094000020F8B501F06043B3F1005F0446CE
:1010E0000F465ED10379304D242101FB035149683D
:1010F00021B100684FF40476C0F80863242000FB97
:1011000003539E6956B1D869002839D021B12368AC
:101110004FF40472C3F80423112030E09A61DF60B9
:10112000DE6120684FF48871FFF714FE20684FF4E9
:10113000A271FFF70FFE2368C3F83475C3F8382592
:1011400016BB01221A602479242202FB0452526841
:101150000ABBD3F81011D3F84421D3F8240111436A
:1011600002D10028F5D00A46242303FB04550023AE
:10117000984218BF03209A42AB6118BF0F20F8BDF8
:101180001F61DA610126CCE7D3F8002242F0200289
:10119000C3F80022D7E74FF40472C3F804230020F9
:1011A000EDE71020EBE700BF940000200378022B4E
:1011B00002D14068FFF70CB9012BFAD0704700004C
:1011C000F0B52B4D8BB00120FFF799FA0FCD04AC91
:1011D0000FC495E80300274B274A00934FF4807310
:1011E00084E80300CDE902230193244A07236946DA
:1011F00004A8FFF7BDF908B1FFF7EAF800F060F9BD
:10120000054680BB0646044600F0C4F9074668461A
:10121000FFF706FA0028F7D19DF800301CB91E022E
:101220003D460124F0E705F11502BA429BB202D215
:101230001E023D46E8E71E43304600F003FB04A8CB
:1012400000F0C2FA04460028DED09DF81100FFF736
:10125000FDF90028F9D19DF81000FFF7F7F90446D1
:101260000028F8D1D0E74FF0FF300BB0F0BD00BF41
:1012700098200000B8000020B8010020AD11000047
:101280000F4B0322C3F80825A3F5F0330022C3F85F
:101290000022C3F8102101221A61D3F81021002A7C
:1012A000FBD000220749C3F810215A601A600A8057
:1012B000D3F8142522F47022C3F81425704700BF18
:1012C00000F00140D803002008B500F089FC084B6D
:1012D00001200022C3F80805C3F81025C3F814251F
:1012E000A3F5B0331861FFF7CBFF024B187008BDB0
:1012F00000F00140DA03002038B51D4C1D4D217867
:10130000286800F077FC20B11B4B01221A800420D2
:1013100038BDFFF7B5FF194B2A68C3F80C252278B2
:10132000C3F81025D3F8241521F0FF01C3F82415C4
:10133000D3F8241541F07101C3F824151049C3F8FE
:101340001C15033A0121C3F83015012A40F203119C
:10135000C3F82C05C3F8341506D80A4A12781206C9
:1013600042F48472C3F81425074AC3F81825CFE75E
:1013700018000020DC030020C00200200010004004
:1013800000294176C3020020FF000300124AD0B1B9
:10139000D2F83C3723F0004323F0FF0343F000432F
:1013A00043F07D03C2F83C37D2F87C3723F000438A
:1013B00023F0700343F0004343F06003C2F87C372E
:1013C000064B18707047064BC2F83C37D2F87C3792
:1013D00023F00043F2E700BF00100040DB030020D1
:1013E0003430004010B5044600F0FAFB214940F2C9
:1013F0005B63C1F83835204BC1F83C351F4B1B6887
:101400005B000233C1F808351D4BC1F804350120DB
:101410000023C1F80031C1F80002D1F8003243F0D6
:101420000203C1F80032D1F8003243F01003C1F8D2
:101430000032D1F8003243F48073C1F80032114B0E
:101440004CB11B780BB1FFF7A1FF0023C1F80C31A1
:1014500001234B6010BD0C4A1B781278C1F80C2593
:10146000002BF7D0094BD8605860C3F84041C3F84F
:101470004441EFE70010004055555500D0030020CF
:10148000CC020020B8020020DC03002000900040C5
:10149000024B01221A649A63704700BF001000409B
:1014A000064B0022C3F81C2101225A61D3F81C21EB
:1014B000002AFBD0D3F84805C0B2704700100040A6
:1014C00038B54FF080430022C3F8002101221A6092
:1014D000D3F80021002AFBD0264B1B6800220124F0
:1014E0004FF480315C600425DC60C3F80425C3F848
:1014F0004021C3F84421C3F84821C3F84C21C3F864
:10150000041340F6C411C3F80042C3F81055C3F8E1
:1015100040154FF48271C3F844151C60164B1A60D5
:10152000164B40F2E2415C60DC60C3F80425C3F86E
:101530004021C3F84421C3F84821C3F84C21C3F823
:101540004015C3F844250E4A4FF40071C2F88011CB
:101550000722C3F81025FFF7CFFE48B9094B1870D2
:10156000094B1C70094B1860094BC3F8404538BD46
:101570002846FCE71C000020BC0200200090004030
:1015800000E100E0C2020020DA030020C4020020D3
:1015900000E0014070B57C4D7C4C2B78042B0BD1C6
:1015A000D4F80421012A07D10021C4F80411784994
:1015B000097809B177490A61D4F80C21002A3CD096
:1015C000754A00210220042BC4F80C11C2F88001D6
:1015D00033D16F4B1B78012262606BB16D4B40F2CF
:1015E000E240C3F840053F20C3F84405DA60C3F881
:1015F0004011C3F844111A60D4F80034012B16D1FD
:101600006649674A0978137852780339012903F04B
:101610000F0301D8022B0AD8002B75D1614962480B
:1016200000F094FC18B9614A1388013313805C48B8
:101630004FF48172002100F0E9FCD4F81C3163B151
:101640005B4A0023C4F81C311368D4F848150B44D6
:101650001360584A1368013313602B78042B0CD1A4
:10166000D4F80031012B08D10022C4F80021484AE7
:10167000127812B1474AD36013604F4B1B68D3F8FE
:101680004021002A57D00022C3F84021414BD3F813
:101690004031012B1DD1FFF703FF484B1B78002B76
:1016A00063D05F2802D90020FFF770FEFFF7F0FE3D
:1016B000384B40F2E242C3F84025002101225A6033
:1016C000DA60C3F840111A60334B4FF40072C3F86C
:1016D00080213049D1F84431002B3FF45EAFFFF751
:1016E000DFFE5E288CBF00200120FFF74FFEFFF7D2
:1016F000CFFE0023C1F84435C1F84431264B4FF4E6
:101700000072C3F8802148E7012B10D0022B10D0C3
:10171000032B8CD1FF2124480023DEB2B24282D9B0
:1017200010F8016B8E4203F10103F6D07FE70F2121
:10173000F1E75521EFE7D3F844110029A6D0C3F80B
:1017400044211F4B93F90030002B09DB5A0901217A
:1017500003F01F0301FA03F360320F4941F822300E
:10176000184B18680130186070BDD4F874354FF606
:10177000F072134204D0B3F5003F01D2012093E789
:101780005E28FBD992E700BFDA030020001000407A
:10179000B80200200090004000E100E018000020A6
:1017A000CC020020B0200000CE020020D803002090
:1017B00014000020D40300201C000020DB030020C4
:1017C00019000020BC020020044B00211A78197077
:1017D000034B1B8803601046704700BFC202002005
:1017E000C002002010B50B4B1B7810F0300FC4B2B4
:1017F00018BF44F0C004012B01D9002010BD064BD6
:101800002046197800F0F6F90028F6D1034B0120A4
:101810001C60F3E7DA03002018000020DC0300203E
:10182000054B1B78012B024603D80449044800F0FD
:10183000FBB90020704700BFDA0300201900002028
:101840001C0000202DE9F0479A4B9B4F9B4E012135
:1018500019703B7800240546820B3480002B00F081
:10186000AF81002A40F0B680C4B2FFF72DFD2B0AED
:10187000092B08D8DFE803F005131C3F4247070790
:10188000075A032C01D9012370E08D4B002018600A
:101890008C4B03221A708C4B1870BDE8F0870F2C0C
:1018A000F1D8874B240104F0C0041C600020F4E749
:1018B000231F032B10D8834B03221A70824B002066
:1018C0001870FFF763FD814B01221A61804BBDE860
:1018D000F0471870FFF710BD083C032CD3D8794BA4
:1018E00004221A70784B012100201970FFF74EFD79
:1018F000764B1961EAE7032CD8D9C4E7032CC2D888
:1019000006233380D2E7032C02D84FF4FF73F8E7A5
:10191000231F032B02D840F64803F2E7A4F1080383
:10192000032BF2D90C3C032CF5D9ACE76DB27E2D1C
:1019300005D1684BD8221A604FF46C73E1E77F2D14
:1019400005D1644B04221A604FF48163D9E77F34D8
:10195000E4B2932C15D95F4B18684300D82803F4E0
:10196000FF7306D143F4007343F001033380042076
:1019700093E70428F8D143F4806343F001033380F4
:101980008BE715F1270FD4DB032DDADCDFF8588164
:10199000012458F824904FFA89F0854216DA401B4A
:1019A000013C00F0CFFA58F82440074660B2401BD3
:1019B00000F0C8FA7FB2474B8742B8BF4C461C6064
:1019C000444B1B685B0003F4FF739AE701340A2C55
:1019D000DFD1F5E7032A5FFA82F90FD1012B03D19A
:1019E00001233380022058E73B4B1B886FEA4343B7
:1019F0006FEA53433380FFF767FC57E7012BEFD1C2
:101A0000DFF8BC803549DFF8BCA0D8F80020344BA3
:101A1000C0F3850CC0F3052008609AF8001002F0AE
:101A2000C002033905F0030542EA0C020129C8F897
:101A300000201D6015D8032D15D1FF2119602649FE
:101A40000024B9F1010F0C8012D14FF481722146AC
:101A5000244800F0DBFA4846FFF7C4FC04233B703F
:101A600024E7032DEBD02728E9D90120308014E7A3
:101A70001B681C49032B4A7006D8013B022B35D842
:101A8000DFE803F0656C7000FF2B7FF4FCAEBCF167
:101A9000050F3FF60BAF01A353F82CF06D1B0000B0
:101AA0006D1B0000851B0000911B0000AD1800009D
:101AB000971B0000C2020020DA030020C0020020B1
:101AC000C402002018000020C30200200090004043
:101AD000B8020020DC030020D8030020D00300203F
:101AE000C8020020CC020020B021000000230B70AF
:101AF0003448354900F061FA0020FFF773FC9AF88A
:101B00000010324BD8F800001A68042956D0032977
:101B100014BF0023502303EBC003042908BF5B0854
:101B200040F27121F9330846984201F27121FAD34B
:101B3000274BC2F8400502F5A072C3F81025254ACC
:101B4000C3F814250122C3F80425022387E70123E3
:101B50000B700F211B4800F059FACDE702230B70E0
:101B60005521F7E704230B70FF21F3E70020FFF76F
:101B700039FC00F037F8174B0122C3F800221A6035
:101B800003236CE7FFF72EFE00287FF48FAE7AE682
:101B9000FFF746FEF8E710490B68FF2B3FF420AF34
:101BA0000E4A1068B3FBF0F3DBB26FEA4343002048
:101BB0006FEA53433380086010606EE65823AAE74B
:101BC00005206AE6CE020020B02000001C000020A4
:101BD00000F001400010004014000020D403002059
:101BE00070470000024B4FF40072C3F85026704754
:101BF00000100040C31E012B0CD958B1A0F1EC021B
:101C0000132A03D8074BD340DB0703D420F020006E
:101C1000D82805D10339012994BF0020042070473A
:101C200004207047110109002AB9104B03600823F2
:101C30000B7001207047012A03D10D4B036009236B
:101C4000F6E7022A03D10B4B03600A23F0E7032ACD
:101C500003D1094B03601A23EAE7042A03D1074B97
:101C600003601B23E4E70020704700BF00800040B2
:101C70000090004000A0004000A0014000B00140E2
:101C80004FF08053D3F83001421C04BF4FF0704333
:101C900093F8E00F831F5842584170474FF070434C
:101CA00093F8E02F062A09D1D3F8E83FC3F30313D2
:101CB000033B032B02D8024AD05C704700207047D8
:101CC000E021000008B5FFF7DBFF40B14FF0805383
:101CD0008F4AD3F82433C3F30423C2F84035FFF707
:101CE000DDFF10B18B4B8C4A5A67FFF7C9FF48B133
:101CF0004FF080534FF08042D3F84432C3F3423365
:101D0000C2F83C35FFF7CAFF30B1844AD2F8FC3044
:101D100023F08073C2F8FC30FFF7B2FF40B14FF000
:101D200080430022C3F80C21C3F81021C3F83825E2
:101D3000FFF7B4FF20B14FF080430322C3F8A02582
:101D4000FFF7ACFF60B1764B0522C3F810260122E5
:101D5000C3F888260022C3F818263F22C3F81426A9
:101D60004FF08053D3F83021511C09BF4FF070431E
:101D7000D3F8343193F8E02FD3F8E83F08BFC3F32A
:101D80000313062A4DD1033B032B03D8654AD35CCA
:101D9000002B46D04FF08052634BD2F80414C3F8A6
:101DA0002015D2F80814C3F82415D2F80C14C3F87F
:101DB0002815D2F81014C3F82C15D2F81414C3F84F
:101DC0003015D2F81814C3F83415D2F81C14C3F81F
:101DD0004015D2F82014C3F84415D2F82414C3F8DF
:101DE0004815D2F82814C3F84C15D2F82C14C3F8AF
:101DF0005015D2F83014C3F85415D2F83414C3F87F
:101E00006015D2F83814C3F86415D2F83C14C3F83E
:101E10006815D2F84014C3F86C15D2F84424C3F8FE
:101E20007025FFF72DFF48B14FF080534FF08042EF
:101E3000D3F8583203F04F03C2F8E43EFFF720FF17
:101E400048B14FF08043D3F80024D20744BF6FF06D
:101E50000102C3F800244FF08053D3F83021062A42
:101E60000ED1D3F83431033B032B02D82F4AD35C75
:101E700033B12F4AD2F83C3743F48063C2F83C3781
:101E8000264AD2F8883043F47003C2F88830BFF392
:101E90004F8FBFF36F8F4FF01023D3F80022002A2B
:101EA00003DBD3F80432002B2EDA224B0122C3F8D5
:101EB0000425D3F80024002AFBD04FF0102215216E
:101EC000C2F80012D3F80024002AFBD04FF01023F0
:101ED0001522C3F80422174BD3F80024002AFBD0A4
:101EE0000022C3F80425D3F80024002AFBD0BFF356
:101EF0004F8F0A49104BCA6802F4E0621343CB606B
:101F0000BFF34F8F00BFFDE70C4B0D4A1A6008BDB1
:101F10000030014000C007400DF0ADBA00ED00E018
:101F200000500040D821000000C00040DC2100002B
:101F30000010004000E001400400FA0520000020ED
:101F40000090D0030028B8BF404270479AB330B524
:101F500094460F2A18D902460B4640EA010414F0B1
:101F6000030F02D00CF1FF3C11E019461046043279
:101F700004330C680568A54206D110461946ACF139
:101F8000040CBCF1040FF0D8BCF1010C0FD00A46D0
:101F9000034684441146184601330132047891F80F
:101FA00000E0744503D1184611466345F2D100782C
:101FB0000B78C01A30BD00207047844640EA010308
:101FC00013F0030F18D18446202A0BD32DE9F00714
:101FD000B1E8F807A0E8F807A2F12002202AF7D21A
:101FE000BDE8F007042A07D351F8043B40F8043B4E
:101FF000A2F10402042AF7D2002A05D011F8013B0D
:1020000000F8013B013AF9D1604670478446002A46
:102010002DD010F0030F04D000F8011B013A26D098
:10202000F7E7C9B241EA012141EA0141202A12D36E
:10203000A2F120022DE9F0030B460C460D460E4698
:102040000F4688468946A0E8FA03203AFBD2BDE84D
:10205000F00320320BD0042A05D340F8041B043AC5
:1020600005D0042AF9D200F8011B013AFBD16046E1
:022070007047B7
:10207400FFFFFFFFFFFFFFFFFFFFFFFFFFFFFFFF6C
:1020840000000000000000000000D601060100006E
:1020940011121314080000000600000005000000DF
:1020A400070000000000000000A04E00FFC1FBE894
:1020B4004C90728BE7B3518963AB2323028418726B
:1020C400AA612F3B51A8E53749FBC9CA0C18532C08
:1020D400FD45E39AE6F15DB0B61BB4BE2A50EAE9C9
:1020E4000E9C4B5E5724CCA1B759B887FFE07D7492
:1020F4002648B9C5F3D9A8C4B1D5911101420C3908
:10210400D5B0979D28D4F29BA4FD6465068C2996CE
:10211400FEA2714DF3F82E58DB0D5A5F1528F574A5
:1021240007CE25AF2B12E6D0DB2CDCC37FF03E3A82
:1021340013A4DCE2F96C54E2D8EAC8880021869C36
:102144006AD8CB4E146AF94DD27EB23203C6144B10
:102154007FD1B8A6797C17ACED06ADAF0A947ABAF4
:1021640003E792D7150973E86D16EEE13F781F9DDA
:1021740009526EF17C362A716C7564448010434EAA
:1021840035EC65270AB5FC26693F599901638AA590
:10219400BF685CD33CBE0BD67683D657054A3DDD7B
:1021A4008173C9EB8A8439F4360BF700D800000038
:1021B400FF000000EC000000F0000000F40000004C
:1021C400F8000000FC000000000000000300000014
:1021D40004000000000001010000000101000000F3
:1021E400000000000020004000000000002000402B
:1021F40000000000FF000000030800000080004011
:042204000090D00373
:040000030000037581
:00000001FF
